:020000040800F2
:1000000050060020D5010008CF3E0008A3070008D5
:10001000CD3E000865040008054E00080000000001
:10002000000000000000000000000000FB46000887
:100030006704000800000000714300083148000810
:10004000EF010008EF010008EF010008EF010008D0
:10005000EF010008EF010008EF010008EF010008C0
:10006000EF010008EF010008EF010008EF010008B0
:10007000EF010008EF010008EF010008EF010008A0
:10008000EF010008EF010008EF010008EF01000890
:10009000EF010008EF010008EF010008AD040008BF
:1000A000EF010008EF010008EF010008EF01000870
:1000B000EF010008EF010008EF010008EF01000860
:1000C000EF010008EF010008EF010008EF01000850
:1000D000EF010008694C0008EF010008EF0100087B
:1000E000EF010008EF010008EF010008EF01000830
:1000F000EF010008EF010008EF010008EF01000820
:10010000EF010008EF010008EF010008EF0100080F
:10011000EF010008EF01000831490008EF01000875
:10012000EF010008EF010008EF010008EF010008EF
:1001300000F002F800F03FF80AA090E8000C8244BA
:100140008344AAF10107DA4501D100F034F8AFF297
:10015000090EBAE80F0013F0010F18BFFB1A43F0A5
:1001600001031847F47B0000147C0000103A24BF00
:1001700078C878C1FAD8520724BF30C830C144BF0C
:1001800004680C607047000000230024002500264E
:10019000103A28BF78C1FBD8520728BF30C148BFEA
:1001A0000B607047782900F07580002070471FB5FC
:1001B0001FBD10B510BD00F025F91146FFF7F7FF80
:1001C00004F022FF00F043F903B4FFF7F2FF03BC91
:1001D00004F019FE0948804709480047FEE7FEE79A
:1001E000FEE7FEE7FEE7FEE7FEE7FEE7FEE7FEE7E7
:1001F00004480549034A054B70470000354800088C
:10020000310100085002002050060020500200205A
:10021000704700000FB4044910B503AA029800F01B
:10022000C3F810BC5DF814FB540000202DE9F04128
:100230000E460446002020622046E168884730B31D
:10024000252805D0D4E901219047206A401CF2E717
:10025000E168204600278847050018D0A5F1410035
:10026000192802D820354FF4006732462946204627
:100270002760FFF797FF40B1012804D0F61D26F054
:1002800007060836D8E7361DD6E72846DAE7206A9B
:10029000BDE8F08170B504460D4621461068AFF305
:1002A00000802188090502D50F4A7A4402E00E4AEF
:1002B0007A440E32002104F1240305E000F00F0619
:1002C0000009965D5E54491C0028F7D12078002370
:1002D000000704D5702D02D009B102231132204647
:1002E000BDE8704000F006B8807A000070477047A3
:1002F000704770472DE9F0470D46994692460446EF
:1003000000F124080168880604D5E06921F0100195
:10031000216000E00120A84201DD471B00E000272A
:10032000A1697A1902EB0900081AA0612078C006B9
:1003300002D42046AFF30080002608E0D4E9012172
:100340001AF806009047206A401C761C20624E4531
:10035000F4DB2078C0060AD52046AFF3008006E023
:10036000D4E9012130209047206A401C2062381EC9
:10037000A7F10107F4DC07E0D4E9012118F8050032
:100380009047206A401C2062281EA5F10105F3DC7D
:100390002046AFF300802078000602D50220BDE899
:1003A000F0870120FBE70000074B70B50D467B444A
:1003B00000F011F80446284600F020F810B14FF084
:1003C000FF3070BD204670BD3F4C000001694A1CE3
:1003D00002610878704700B58FB0CDE90131002186
:1003E000059105497944CDE9031011466846FFF7A8
:1003F0001DFF0FB000BD0000E5FFFFFF007B00F018
:1004000080007047754600F029F8AE460500694641
:10041000534620F00700854618B020B5FFF7E8FEE8
:10042000BDE820404FF000064FF000074FF00008F5
:100430004FF0000B21F00701AC46ACE8C009ACE876
:10044000C009ACE8C009ACE8C0098D467047044655
:10045000AFF300802046FFF7B7FE0000004870476A
:10046000EC010020FEE770473EB50821002000F0B7
:1004700001F94FF48070002400908DF804400820AA
:100480008DF8050001258DF80650684600F046F805
:1004900017208DF808008DF809408DF80A408DF876
:1004A0000B5002A803F014FD3EBD000010B54FF440
:1004B0008074204600F022F801280DD1094A00205E
:1004C000C2F898010121C2F898110748C0F88C11B0
:1004D00006480178491C01702046BDE8104000F034
:1004E00007B800000080224200802142180000204E
:1004F000014908607047000014040140064A0146A3
:1005000000201268044B0A4014331B680B4202D0CF
:10051000002A00D0012070470004014030B51A4A7B
:100520008379016853B313688B431360111D0B6803
:100530000468A3430B60017911440B6804682343EA
:100540000B60114B083319680468A14319601C1D26
:1005500021680568A94321604179102905D011441B
:100560000A68006802430A6030BD196802681143D6
:100570001960216800680143216030BD0079104492
:1005800002688A43026030BD000401408000A0F18F
:10059000C0400029016802D041F0010101E0024A97
:1005A0001140016070470000FEFF0F0010B5D0E958
:1005B00001121143D0E903231A4311434269114345
:1005C00082691143C2691143026A1143426A1143AD
:1005D000826A1143C26A1143026B1143026892009E
:1005E000A2F1C04211608168082907D10168890021
:1005F000A1F1C0410A6842F040020A60416BD1E9B2
:10060000002342EA03128B688C891B0243EA0443ED
:100610001A430B8A42EA03520B7D896942EA03625C
:100620000A4301688900A1F1C0414A60C16AB1F57D
:10063000804F08D000686FF070418000A0F1C0408A
:10064000C0F8041110BD816BD1E9002342EA031206
:100650008B680C8A1B0243EA04531A430B7D896999
:1006600042EA036200680A438000A0F1C040C0F87B
:10067000042110BD10B58A0721F003040649120FAA
:1006800021440F238C6893409C438C608B6890407E
:1006900003438B6010BD000000000140F0B5CC7832
:1006A000002204F00F03E40601D58C7823430C7874
:1006B0004FF00F0C14F0FF0F4FF0010E1BD0056828
:1006C0000E880EFA02F42640A64210D196000CFACB
:1006D00006F725EA070703FA06F5CE783D43282EEC
:1006E00002D0482E02D002E0446100E00461521CB6
:1006F000082AE5D305600A88FF2A1CD9446800222D
:1007000002F108060EFA06F50E882E40AE420ED112
:1007100096000CFA06F7BC4303FA06F7CE783C4382
:10072000282E00D14561CE78482E00D10561521C9B
:10073000082AE5D34460F0BDF0B5144C002801DA76
:10074000E36900E06368450D2E0185B2C0F30157EF
:10075000B540C0F30342032F05D0C6020AD50326D5
:100760009640B34307E023F07062636823F0706340
:10077000636002E0AB4343F0706201B12A4300289A
:1007800001DAE261F0BD6260F0BD000000000140EE
:100790000246002092680A4200D0012070470161A1
:1007A0007047FEE708B50121442003F0FBFD182047
:1007B000ADF8000048208DF8030069460648FFF7B1
:1007C0006DFF0120ADF8000028208DF80300694678
:1007D0000248FFF763FF08BD001801400008014010
:1007E0002DE9F041254C264F264D012608B12670F3
:1007F00001E0207878B110212846FFF7C9FF88B1C1
:1008000008212846FFF7C4FF60B101213846FFF7F1
:10081000BFFF012806D010212846FFF7B9FF0128A5
:100820001DD028E00A2004F0AFFB0020207010212A
:100830002846FFF7ADFF58B108212846FFF7A8FF6B
:1008400048B101213846FFF7A3FF012805D012E087
:100850000120BDE8F0810220FBE70320F9E7082131
:100860002846FFF795FF012805D101213846FFF7FB
:100870008FFF00B926700020EBE700004C0000203D
:1008800000080140001801402DE9F043174F0646CB
:10089000002438887D884543B888A0F5D0410439C4
:1008A00002D1B879012807D00021084603F064F985
:1008B00003F0D2FA0E4815E00020B8714FF02A0973
:1008C000A7F80A904FF02B08A7F80C80014603F018
:1008D00053F90120B871A7F80A80A7F80C90E7E750
:1008E0000680641CAC42FBD3BDE8F083C00000204E
:1008F0000008006C2DE9F04F4A492A232B248988EF
:1009000045F2105A4FF4305B4FF4285E4FF44875AF
:100910004FF0F00C49F241394FF4A07745F2103610
:100920004FF4F07280B13F484FF00108494580F81C
:1009300006800780A0F802C001D0B1423ED12C252C
:1009400005814381848157E036484FF000084945CE
:1009500080F80680A0F800C0478006D0A1F5D04CF2
:10096000BCF1040C01D0B1420CD12C25058143818E
:10097000A1F5D0438481043B01D0B14244D107802A
:10098000428041E0514507D1A0F808B0A0F80AE044
:100990004FF42C5181810EE0A1F5C856633E06D07C
:1009A0002221018120214181212181812CE02C21E2
:1009B0000181448183810280458025E0A1F5D04CEE
:1009C000BCF1040C09D051450BD1A0F808B0A0F837
:1009D0000AE04FF42C53838121E02C2505814481CA
:1009E00009E0A1F5C85CBCF1630C12D0222303819D
:1009F0002123438120238381A1F5D043043B01D0EF
:100A0000B14201D102804780BDE8F04F002002F0E2
:100A1000DFBF4FF02C0CA0F808C043818481058013
:100A20004280E9E7C00000202DE9F04FDFF80C819B
:100A3000934642460B46B8F804500C0ADFF800A172
:100A40009189060A5289A5F513470AF10209413F27
:100A500018D0A5F5A647103F14D0B7F500771CD0E5
:100A60004746A5F5C85CBE793F883F1A7F1EBCF19A
:100A7000630C27D0A5F5D04CBCF1040C3AD0012E64
:100A80004AD04AE0AAF800204A46A9F80060C0B25D
:100A9000A9F80000AAF800103AE0AAF80020A9F886
:100AA0000060521CAAF80020C0B2A9F80000AAF801
:100AB0000010A9F80040491CAAF80010D8B2A9F803
:100AC000000033E006B9B8B2AAF80020050A4A4689
:100AD000A9F80050C7B2A9F80070A9F80050C0B238
:100AE000A9F80000AAF80010A9F80040D8B2A9F8A7
:100AF00000000DE0012E00D1B8B2AAF80020050ACE
:100B00004A46A9F80050C0B2A9F80000AAF800109F
:100B10001480D8B2108009E0B8B20146104603F044
:100B2000A5F9B8F80C00194603F0A0F9B8F80810B8
:100B3000AAF80010A9F800B0BDE8F08FC0000020AE
:100B4000FE07006C2DE9F04F01210E029FB03046E8
:100B500003F010FC01214FF4B47003F023FC0127D3
:100B6000ADF83C704FF010088DF83F8003248DF8ED
:100B70003E400FA9FE48FFF791FD4CF23370ADF8EF
:100B80003C0018258DF83F508DF83E400FA9F948DC
:100B9000FFF784FD4FF68070ADF83C008DF83F50B4
:100BA0008DF83E400FA9F448FFF778FD41F20100AF
:100BB000ADF83C008DF83F508DF83E400FA9EF484E
:100BC000FFF76CFD00200F21CDE918011A901B9052
:100BD0001C901D901090CDE91104CDE916071490DA
:100BE00006211590CDE90010CDE90208139004907C
:100BF0003101CDE908010690059007908900CDE903
:100C00000A010C9017A80D9010A80E906846FFF7E7
:100C1000CDFC01210620FFF7B9FC322004F0B4F925
:100C2000002002F0ABFED64DD64C49F24139A880E7
:100C300046F6040A45F2103B45F210574FF6FF788E
:100C4000FF2804D3404502D0B0F5134F70D1D32014
:100C5000208002F089FEA88002F086FEA88002F0C3
:100C600083FE08EA00204146A88002F07DFEAA88A3
:100C70001043A88048455BD0BF20208002F074FE5E
:100C8000A88002F071FEA88002F06EFEA88002F03B
:100C90006BFE01EA0020A88002F066FEAA881043DD
:100CA000A880504544D0D420208002F05DFEA8806A
:100CB00002F05AFEA88002F057FE01EA0020A88048
:100CC00002F052FEAA881043A880584530D04FF455
:100CD0005A40208002F048FEA8804FF45B402080FC
:100CE00002F042FE01EA0020A8804FF45C40208020
:100CF00002F03AFEAA881043A880B0F5004F7DD0DC
:100D0000B84215D0A120208002F02EFEA88002F06B
:100D10002BFE01EA0020A88002F026FEA9880843E5
:100D2000A0F5AE41A880613902D141F66310A880D8
:100D3000A98895A0FFF76EFAA888924DAD1C48458A
:100D40007ED1CF20208000202880C1202880302024
:100D50002880ED2020806420288003202880122015
:100D6000288081202880E82020808520288010206D
:100D700028807A202880CB202080392028802C20B1
:100D80002880002028803420288002202880F72016
:100D9000208020202880EA202080002028802880B1
:100DA000C02020801B202880C12020800120288096
:100DB000C5202080302028802880C7202080B720B0
:100DC000288036202080482028803A202080552006
:100DD0002880B1202080002028801A202880B6207A
:100DE00020800A202880A2202880F2202080002055
:100DF0002880262020800120288000E051E0E0208B
:100E000020800F2028802A20288028202880082061
:100E100028800E2028800820288054202880A9209F
:100E20002880432028800A2028800F202880002046
:100E30002880288028802880E1202080002000E071
:100E400031E028801520288017202880072028805E
:100E500011202880062028802B20288056202880DA
:100E60003C20288005202880102028800F20288002
:100E70003F20288028800F2028802B2020800020E1
:100E800028802880012028803F2028802A20208058
:100E90000020288028802880EF20288011202080B2
:100EA00084E0AF8044E7504576D1112020801420A3
:100EB00004F06AF8D0202080072028804220288073
:100EC0001D202880D1202080002028801A20288002
:100ED00009202880D22020800120288022202880FC
:100EE000C0202080102028803B20288000202880DF
:100EF0000220288011202880C520208003202880FF
:100F0000C8202080002028802520288021202880BB
:100F100005202880002028800A202880652028803D
:100F20002520288077202880502028800F202880A6
:100F300000202880F820208001202880FE202080AA
:100F40000020288002202880202020803620208039
:100F5000082028803A202080552028802B202080BF
:100F6000002028802880012028803F20288014E04D
:100F7000000C014000140140001801400020014015
:100F8000C0000020FE07006C204C43442049443A36
:100F900025780D0A000000000EE02A2020800020A5
:100FA0002880288001202880DF202880782003F0F6
:100FB000EBFF292001F02DBC58457DD1ED2020808C
:100FC00001202880FE202880EE202080DE2028803E
:100FD00021202880F120208001202880DF2020800F
:100FE00010202880C42020808F202880C6202080C8
:100FF00000202880E220288028802880BF202080B0
:10100000AA202880B02020800D2028800020288061
:101010000D20288000202880112028800020288092
:101020001920288000202880212028800020288066
:101030002D202880002028803D2028800020288026
:101040005D202880002028805D20288000202880C6
:10105000B120208080202880002028808B202880BC
:10106000002028809620288000202880B220208020
:10107000002028802880022028800020288003204B
:10108000288000202880B32020800020288028800D
:101090002880288028802880288028802880288010
:1010A0002880288028802880288028802880288000
:1010B00028802880288000E0FEE32880288028807F
:1010C000B42020808B202880002028809620288033
:1010D00000202880A120288000202880B5202080A2
:1010E00002202880002028800320288000202880DB
:1010F0000420288000202880B6202080002028801E
:101100002880B72020800020288028803F20288049
:10111000002028805E2028800020288064202880ED
:10112000002028808C20288000202880AC20288067
:1011300000202880DC202880002028807020288043
:10114000002028809020288000202880EB20288004
:1011500000202880DC20288000202880B8202080E3
:1011600000202880288028802880288028802880C7
:101170002880BA20208024202880002028802880F1
:101180002880C12020802020288000202880542012
:10119000288000202880FF20288000202880C2206E
:1011A00020800A2028800020288004202880002019
:1011B0002880C32020803C202880002028803A20DE
:1011C000288000202880392028800020288037208F
:1011D0002880002028803C2028800020288036207D
:1011E00028800020288032202880002028802F207E
:1011F0002880002028802C2028800020288029207A
:101200002880002028802620288000202880242074
:101210002880002028802420288000202880232067
:101220002880002028803C2028800020288036202C
:1012300028800020288032202880002028802F202D
:101240002880002028802C20288000202880292029
:101250002880002028802620288000202880242024
:101260002880002028802420288000202880232017
:10127000288000202880C420208062202880002030
:1012800028800520288000202880842028800020B5
:101290002880F02028800020288018202880002026
:1012A0002880A42028800020288018202880002062
:1012B000288050202880002028800C2028800020B2
:1012C0002880172028800020288095202880002052
:1012D0002880F320288000202880E6202880002015
:1012E0002880C520208032202880002028804420AB
:1012F00028800020288065202880002028807620F3
:101300002880002028808820288000202880C6206F
:10131000208020202880002028801720288000207E
:1013200028800120288000202880C72020800020DD
:101330002880288028802880C820208000202880BD
:10134000288028802880C9202080002028802880AC
:10135000288028802880288028802880288028804D
:10136000288028802880288028802880E0202080ED
:1013700016202880002028801C202880002028801B
:1013800021202880002028803620288000202880E6
:101390004620288000202880522028800020288095
:1013A00064202880002028807A202880002028803F
:1013B0008B202880002028809920288000202880E9
:1013C000A820288000202880B9202880002028809C
:1013D000C420288000202880CA202880002028805F
:1013E000D220288000202880D92028800020288032
:1013F000E020288000202880F320288000202880FA
:10140000E120208016202880002028801C202880B1
:101410000020288022202880002028803620288054
:101420000020288045202880002028805220288005
:101430000020288064202880002028807A202880AE
:10144000002028808B202880002028809920288058
:1014500000202880A820288000202880B92028800B
:1014600000202880C420288000202880CA202880CE
:1014700000202880D220288000202880D8202880A2
:1014800000202880E020288000202880F320288069
:1014900000202880E220208005202880002028804D
:1014A0000B202880002028801B20288000202880F6
:1014B0003420288000202880442028800020288094
:1014C0004F2028800020288061202880002028804C
:1014D00079202880002028808820288000202880EB
:1014E0009720288000202880A6202880002028809F
:1014F000B720288000202880C22028800020288053
:10150000C720288000202880D12028800020288023
:10151000D620288000202880DD20288000202880F8
:10152000F320288000202880E320208005202880C8
:10153000002028800A202880002028801C20288065
:101540000020288033202880002028804420288004
:1015500000202880502028800020288062202880B9
:10156000002028807820288000202880882028805B
:10157000002028809720288000202880A62028800E
:1015800000202880B720288000202880C2202880C2
:1015900000202880C720288000202880D120288093
:1015A00000202880D520288000202880DD20288069
:1015B00000202880F320288000202880E42020803C
:1015C00001202880002028800120288000202880F9
:1015D00002202880002028802A20288000202880BF
:1015E0003C202880002028804B2028800020288054
:1015F0005D202880002028807420288000202880FA
:1016000084202880002028809320288000202880A3
:10161000A220288000202880B32028800020288055
:10162000BE20288000202880C42028800020288018
:10163000CD20288000202880D320288000202880EA
:10164000DD20288000202880F320288000202880AA
:10165000E520208000202880288028802880022003
:1016600028800020288029202880002028803C20F5
:101670002880002028804B202880002028805D20A2
:101680002880002028807420288000202880842042
:101690002880002028809320288000202880A220F5
:1016A000288000202880B320288000202880BE20A9
:1016B000288000202880C420288000202880CD2079
:1016C000288000202880D320288000202880DC204B
:1016D000288000202880F320288000202880E62011
:1016E000208011202880002028803420288000209D
:1016F00028805620288000202880762028800020FE
:1017000028807720288000202880662028800020DC
:101710002880882028800020288099202880002088
:101720002880BB2028800020288099202880002045
:1017300028806620288000202880552028800020CE
:1017400028805520288000202880452028800020DF
:1017500028804320288000202880442028800020E2
:101760002880E720208032202880002028805520F3
:10177000288000202880762028800020288066206D
:10178000288000202880672028800020288067206B
:101790002880002028808720288000202880992009
:1017A000288000202880BB202880002028809920C5
:1017B000288000202880772028800020288044204E
:1017C0002880002028805620288000202880232080
:1017D0002880002028803320288000202880452071
:1017E000288000202880E820208000202880288071
:1017F00099202880002028808720288000202880A9
:1018000088202880002028807720288000202880B9
:1018100066202880002028808820288000202880BA
:10182000AA20288000202880BB2028800020288033
:101830009920288000202880662028800020288089
:1018400055202880002028805520288000202880CE
:1018500044202880002028804420288000202880E0
:101860005520288000202880E9202080AA20288078
:1018700000202880288028802080AA202880CF204F
:1018800020800020288028802880288028802880A8
:101890002880288028802880288028802880288008
:1018A000288028802880F020208000202880502058
:1018B00028800020288000E02CE028802880F32069
:1018C000208000202880F9202080062028801020F9
:1018D000288029202880002028803A202080552038
:1018E000288011202080642003F04EFB29202080D6
:1018F000352020800020288051202080FF20288053
:10190000532020802C202880552020808220288071
:101910002C20FCE3B8427DD14FF47043552118468A
:1019200002F0A4FA4FF20105AA21284602F09EFA1D
:101930006E1C5221304602F099FAAF1C082138463D
:1019400002F094FA4FF204090121484602F08EFA9F
:101950000D214FF4304002F089FA0D214BF20100C5
:1019600002F084FA0D214BF2020002F07FFA4FF4EC
:10197000364A3421504602F079FA34214BF20160A4
:1019800002F074FA34214BF2026002F06FFA4FF465
:10199000314B0D21584602F069FA0D214BF201102E
:1019A00002F064FA0D214BF2021002F05FFA3421CA
:1019B0004FF4374002F05AFA34214BF2017002F032
:1019C00055FA34214BF2027002F050FA00214FF424
:1019D000324002F04BFA00214BF2012002F046FAAD
:1019E00000214BF2022002F041FA24214FF438404A
:1019F00002F03CFA24214BF6010002F037FA2421D0
:101A00004BF6020002F032FA01214FF43F4002F09F
:101A10002DFA00E0FEE30F214FF4334002F026FAE6
:101A20000F214BF2013002F021FA0F214BF202306C
:101A300002F01CFA34214FF4394002F017FA342135
:101A40004BF6011002F012FA34214BF6021002F0AC
:101A50000DFA08214FF4354002F008FA08214BF244
:101A6000015002F003FA08214BF2025002F0FEF995
:101A700003214FF4424002F0F9F924214FF43A4097
:101A800002F0F4F924214BF6012002F0EFF92421B1
:101A90004BF6022002F0EAF900214FF43C4002F03C
:101AA000E5F978214BF6014002F0E0F900214BF610
:101AB000024002F0DBF900214FF43D4002F0D6F97C
:101AC00078214BF6015002F0D1F900214BF602507B
:101AD00002F0CCF900214FF43E4002F0C7F9642136
:101AE0004BF6016002F0C2F900214FF4514002F0C0
:101AF000BDF933214DF2011002F0B8F900214DF289
:101B0000021002F0B3F934214DF2031002F0AEF9E5
:101B100000214DF2041002F0A9F93A214DF205100E
:101B200002F0A4F900214DF2061002F09FF94A21BB
:101B30004DF2071002F09AF900214DF2081002F060
:101B400095F95C214DF2091002F090F900214DF257
:101B50000A1002F08BF981214DF20B1002F086F988
:101B600000214DF20C1002F081F9A6214DF20D106A
:101B700002F07CF900214DF20E1002F077F9E52118
:101B80004DF20F1002F072F901214DF2101002F027
:101B90006DF913214DF2111002F068F901214DF297
:101BA000121002F063F954214DF2131002F05EF9A5
:101BB00001214DF2141002F059F982214DF2151055
:101BC00002F054F901214DF2161002F04FF9CA212A
:101BD0004DF2171002F04AF902214DF2181002F0EE
:101BE00045F900214DF2191002F040F902214DF2A1
:101BF0001A1002F03BF901214DF21B1002F036F9E8
:101C000002214DF21C1002F031F934214DF21D1069
:101C100002F02CF902214DF21E1002F027F9672183
:101C20004DF21F1002F022F902214DF2201002F0B5
:101C30001DF984214DF2211002F018F902214DF214
:101C4000221002F013F9A4214DF2231002F00EF934
:101C500002214DF2241002F009F9B7214DF22510AE
:101C600002F004F902214DF2261002F0FFF8CF2114
:101C70004DF2271002F0FAF802214DF2281002F07E
:101C8000F5F8DE214DF2291002F0F0F802214DF2B4
:101C90002A1002F0EBF8F2214DF22B1002F0E6F8D8
:101CA00002214DF22C1002F0E1F8FE214DF22D1030
:101CB00002F0DCF803214DF22E1002F0D7F81021CB
:101CC0004DF22F1002F0D2F803214DF2301002F045
:101CD000CDF833214DF2311002F0C8F803214DF256
:101CE000321002F0C3F86D214DF2331002F0BEF84D
:101CF00000214FF4524002F0B9F833214DF2012097
:101D000002F0B4F800214DF2022002F0AFF83421C5
:101D10004DF2032002F0AAF800214DF2042002F057
:101D2000A5F83A214DF2052002F0A0F800214DF26D
:101D3000062002F09BF84A214DF2072002F096F8A7
:101D400000214DF2082002F091F85C214DF20920AB
:101D500002F08CF800214DF20A2002F087F8812170
:101D60004DF20B2002F082F800214DF20C2002F01F
:101D70007DF8A6214DF20D2002F078F800214DF2F9
:101D80000E2002F073F8E5214DF20F2002F06EF8FC
:101D900001214DF2102002F069F813214DF21120BB
:101DA00002F064F801214DF2122002F05FF8542194
:101DB0004DF2132002F05AF801214DF2142002F0E6
:101DC00055F882214DF2152002F050F801214DF214
:101DD000162002F04BF8CA214DF2172002F046F807
:101DE00002214DF2182002F041F800214DF2192095
:101DF00002F03CF802214DF21A2002F037F80121DE
:101E00004DF21B2002F032F802214DF21C2002F0AC
:101E10002DF834214DF21D2002F028F802214DF258
:101E20001E2002F023F867214DF21F2002F01EF859
:101E300002214DF2202002F019F884214DF22120D8
:101E400002F014F802214DF2222002F00FF8A42132
:101E50004DF2232002F00AF802214DF2242002F074
:101E600005F8B7214DF2252002F000F802214DF2CD
:101E7000262001F0FBFFCF214DF2272001F0F6FFD5
:101E800002214DF2282001F0F1FFDE214DF2292040
:101E900001F0ECFF02214DF22A2001F0E7FFF221D0
:101EA0004DF22B2001F0E2FF02214DF22C2001F037
:101EB000DDFFFE214DF22D2001F0D8FF03214DF270
:101EC0002E2001F0D3FF10214DF22F2001F0CEFF84
:101ED00003214DF2302001F0C9FF33214DF23120B2
:101EE00001F0C4FF03214DF2322001F0BFFF6D214C
:101EF0004DF2332001F0BAFF00214FF4534001F0BE
:101F0000B5FF33214DF2013001F0B0FF00214DF259
:101F1000023001F0ABFF34214DF2033001F0A6FF97
:101F200000214DF2043001F0A1FF3A214DF20530BD
:101F300001F09CFF00214DF2063001F097FF4A218D
:101F40004DF2073001F092FF00214DF2083001F010
:101F50008DFF5C214DF2093001F088FF00214DF228
:101F60000A3001F083FF81214DF20B3001F07EFF3A
:101F700000214DF20C3001F079FFA6214DF20D3019
:101F800001F074FF00214DF20E3001F06FFFE521EA
:101F90004DF20F3001F06AFF01214DF2103001F0D7
:101FA00065FF13214DF2113001F060FF01214DF268
:101FB000123001F05BFF54214DF2133001F056FF57
:101FC00001214DF2143001F051FF82214DF2153004
:101FD00001F04CFF01214DF2163001F047FFCA21FC
:101FE0004DF2173001F042FF02214DF2183001F09E
:101FF0003DFF00214DF2193001F038FF02214DF272
:102000001A3001F033FF01214DF21B3001F02EFF99
:1020100002214DF21C3001F029FF34214DF21D3018
:1020200001F024FF02214DF21E3001F01FFF672155
:102030004DF21F3001F01AFF02214DF2203001F065
:1020400015FF84214DF2213001F010FF02214DF2E5
:10205000223001F00BFFA4214DF2233001F006FFE6
:1020600002214DF2243001F001FFB7214DF225305D
:1020700001F0FCFE02214DF2263001F0F7FECF21E7
:102080004DF2273001F0F2FE02214DF2283001F02E
:10209000EDFEDE214DF2293001F0E8FE02214DF285
:1020A0002A3001F0E3FEF2214DF22B3001F0DEFE8A
:1020B00002214DF22C3001F0D9FEFE214DF22D30DF
:1020C00001F0D4FE03214DF22E3001F0CFFE10219D
:1020D0004DF22F3001F0CAFE03214DF2303001F0F5
:1020E000C5FE33214DF2313001F0C0FE03214DF227
:1020F000323001F0BBFE6D214DF2333001F0B6FEFF
:1021000000214FF4544001F0B1FE332100E080E3A0
:102110004DF2014001F0AAFE00214DF2024001F013
:10212000A5FE34214DF2034001F0A0FE00214DF246
:10213000044001F09BFE3A214DF2054001F096FE6D
:1021400000214DF2064001F091FE4A214DF2074078
:1021500001F08CFE00214DF2084001F087FE5C2169
:102160004DF2094001F082FE00214DF20A4001F0DB
:102170007DFE81214DF20B4001F078FE00214DF2F1
:102180000C4001F073FEA6214DF20D4001F06EFEF1
:1021900000214DF20E4001F069FEE5214DF20F40A5
:1021A00001F064FE01214DF2104001F05FFE1321A9
:1021B0004DF2114001F05AFE01214DF2124001F0A2
:1021C00055FE54214DF2134001F050FE01214DF215
:1021D000144001F04BFE82214DF2154001F046FE05
:1021E00001214DF2164001F041FECA214DF2174087
:1021F00001F03CFE02214DF2184001F037FE0021B3
:102200004DF2194001F032FE02214DF21A4001F068
:102210002DFE00E0FFE201214DF21B4001F026FE01
:1022200002214DF21C4001F021FE34214DF21D40EF
:1022300001F01CFE02214DF21E4001F017FE672145
:102240004DF21F4001F012FE02214DF2204001F03C
:102250000DFE84214DF2214001F008FE02214DF2D5
:10226000224001F003FEA4214DF2234001F0FEFDC7
:1022700002214DF2244001F0F9FDB7214DF2254035
:1022800001F0F4FD02214DF2264001F0EFFDCF21D7
:102290004DF2274001F0EAFD02214DF2284001F005
:1022A000E5FDDE214DF2294001F0E0FD02214DF275
:1022B0002A4001F0DBFDF2214DF22B4001F0D6FD6A
:1022C00002214DF22C4001F0D1FDFE214DF22D40B6
:1022D00001F0CCFD03214DF22E4001F0C7FD10218D
:1022E0004DF22F4001F0C2FD03214DF2304001F0CC
:1022F000BDFD33214DF2314001F0B8FD03214DF217
:10230000324001F0B3FD6D214DF2334001F0AEFDDE
:1023100000214FF4554001F0A9FD33214DF2015049
:1023200001F0A4FD00214DF2025001F09FFD342187
:102330004DF2035001F09AFD00214DF2045001F0DE
:1023400095FD3A214DF2055001F090FD00214DF22E
:10235000065001F08BFD4A214DF2075001F086FD39
:1023600000214DF2085001F081FD5C214DF2095031
:1023700001F07CFD00214DF20A5001F077FD812132
:102380004DF20B5001F072FD00214DF20C5001F0A6
:102390006DFDA6214DF20D5001F068FD00214DF2BA
:1023A0000E5001F063FDE5214DF20F5001F05EFD8E
:1023B00001214DF2105001F059FD13214DF2115041
:1023C00001F054FD01214DF2125001F04FFD542156
:1023D0004DF2135001F04AFD01214DF2145001F06D
:1023E00045FD82214DF2155001F040FD01214DF2D5
:1023F000165001F03BFDCA214DF2175001F036FD99
:1024000002214DF2185001F031FD00214DF219501A
:1024100001F02CFD02214DF21A5001F027FD01219F
:102420004DF21B5001F022FD02214DF21C5001F033
:102430001DFD34214DF21D5001F018FD02214DF219
:102440001E5001F013FD67214DF21F5001F00EFDEB
:1024500002214DF2205001F009FD84214DF221505E
:1024600001F004FD02214DF2225001F0FFFCA421F5
:102470004DF2235001F0FAFC02214DF2245001F0FC
:10248000F5FCB7214DF2255001F0F0FC02214DF290
:10249000265001F0EBFCCF214DF2275001F0E6FC75
:1024A00002214DF2285001F0E1FCDE214DF22950CD
:1024B00001F0DCFC02214DF22A5001F0D7FCF221A0
:1024C0004DF22B5001F0D2FC02214DF22C5001F0C4
:1024D000CDFCFE214DF22D5001F0C8FC03214DF240
:1024E0002E5001F0C3FC10214DF22F5001F0BEFC24
:1024F00003214DF2305001F0B9FC33214DF231503F
:1025000001F0B4FC03214DF2325001F0AFFC6D211B
:102510004DF2335001F0AAFC00214FF4564001F077
:10252000A5FC33214DF2016001F0A0FC00214DF229
:10253000026001F09BFC34214DF2036001F096FC37
:1025400000214DF2046001F091FC3A214DF205604A
:1025500001F08CFC00214DF2066001F087FC4A215D
:102560004DF2076001F082FC00214DF2086001F09D
:102570007DFC5C214DF2096001F078FC00214DF2F8
:102580000A6001F073FC81214DF20B6001F06EFCDA
:1025900000214DF20C6001F069FCA6214DF20D60A6
:1025A00001F064FC00214DF20E6001F05FFCE521BA
:1025B0004DF20F6001F05AFC01214DF2106001F064
:1025C00055FC13214DF2116001F050FC01214DF238
:1025D000126001F04BFC54214DF2136001F046FCF7
:1025E00001214DF2146001F041FC82214DF2156091
:1025F00001F03CFC01214DF2166001F037FCCA21CC
:102600004DF2176001F032FC02214DF2186001F02A
:102610002DFC00214DF2196001F028FC02214DF241
:102620001A6001F023FC01214DF21B6001F01EFC39
:1026300002214DF21C6001F019FC34214DF21D60A5
:1026400001F014FC02214DF21E6001F00FFC672125
:102650004DF21F6001F00AFC02214DF2206001F0F2
:1026600005FC84214DF2216001F000FC02214DF2B5
:10267000226001F0FBFBA4214DF2236001F0F6FB88
:1026800002214DF2246001F0F1FBB7214DF22560EB
:1026900001F0ECFB02214DF2266001F0E7FBCF21B7
:1026A0004DF2276001F0E2FB02214DF2286001F0BB
:1026B000DDFBDE214DF2296001F0D8FB02214DF255
:1026C0002A6001F0D3FBF2214DF22B6001F0CEFB2A
:1026D00002214DF22C6001F0C9FBFE214DF22D606C
:1026E00001F0C4FB03214DF22E6001F0BFFB10216D
:1026F0004DF22F6001F0BAFB03214DF2306001F082
:10270000B5FB33214DF2316001F0B0FB03214DF2F6
:10271000326001F0ABFB6D214DF2336001F0A6FB9E
:102720005521184601F0A2FBAA21284601F09EFB84
:102730005221304601F09AFB0821384601F096FB01
:102740000021484601F092FBCC21584601F08EFB57
:1027500000214BF2011001F089FB0521504601F0E8
:1027600085FB70214FF4374001F080FB70214BF264
:10277000017001F07BFB01214FF4384001F076FB42
:1027800003214BF6010001F071FB03214BF602001F
:1027900001F06CFB03214BF6030001F067FB022103
:1027A0004FF43C4001F062FB00214BF6014001F088
:1027B0005DFB00214BF6024001F058FBD0214FF4A5
:1027C000494001F053FB02214CF6011001F04EFB91
:1027D00050214CF6021001F049FB50214CF6031039
:1027E00001F044FB50214CF6041001F03FFB0021A6
:1027F0004FF4545001F03AFB55214FF4685001F06A
:1028000035FB4FF488502080782002F0D7FB4FF43E
:1028100024502080FEE3A0F513414FF4E06940F21C
:102820003F1A4FF4274B253924D040F20777C91EB1
:102830007DD04FF4887B08317AD0113979D0A0F55A
:10284000A841083976D0A0F5A8514FF4407B05394E
:1028500071D0B1F520416FD0B1F580516DD0A0F5A8
:102860008A4131396AD0091F69D0A0F5C85163394E
:1028700066D0CFE747F6F001E52001F0F7FA3146E0
:10288000012001F0F3FA4946022001F0EFFA41F28B
:102890003001032001F0EAFA0021042001F0E6FAF9
:1028A00040F20221082001F0E1FA0021092001F0A4
:1028B000DDFA00210A2001F0D9FA00210C2001F0F4
:1028C000D5FA00210D2001F0D1FA00210F2001F0EE
:1028D000CDFA0021102001F0C9FA0721112001F0E2
:1028E000C5FA0021122001F0C1FA0021132001F0E5
:1028F000BDFA0021072001F0B9FA41F290611020E1
:1029000001F0B4FA40F22721112001F0AFFA9D2125
:10291000122001F0ABFA4FF4C851132001F0A6FACF
:102920002521292001F0A2FA0D212B2009E078E0D1
:1029300034E1D9E1AFE24AE3FEE3FEE3FEE3FEE386
:10294000FEE301F093FA0721302001F08FFA40F204
:102950000331312001F08AFA0321322001F086FA96
:1029600040F20621352001F081FA0821362001F0DD
:102970007DFA40F20641372001F078FA4FF44171B8
:10298000382001F073FA0721392001F06FFA40F284
:1029900002613C2001F06AFA08213D2001F066FA4C
:1029A0000021502001F062FAEF21512001F05EFA7F
:1029B0000021522001F05AFA5146532001F056FAF4
:1029C0005946602001F052FA0121612001F04EFACF
:1029D00000216A2001F04AFA0021802001F046FA25
:1029E0000021812001F042FA0021822001F03EFA0C
:1029F0000021832001F03AFA0021842001F036FA08
:102A00000021852001F032FA1021902001F02EFAE9
:102A10004FF4C061922001F029FA40F233110720EF
:102A2000FEE341F28F01EC2001F020FA41F2342163
:102A3000EF2001F01BFA3146012001F017FA494658
:102A4000022001F013FA41F23001032001F00EFAE6
:102A50000021042001F00AFA40F20221082001F0CE
:102A600005FA0021092001F001FA00210A2001F0F5
:102A7000FDF901210C2001F0F9F900210D2001F0F0
:102A8000F5F900210F2001F0F1F90021102001F0EB
:102A9000EDF90721112001F0E9F90021122001F0E0
:102AA000E5F90021132001F0E1F90121072001F0EF
:102AB000DDF9322002F068FA41F29041102001F075
:102AC000D5F940F22721112001F0D0F9322002F08F
:102AD0005BFA8A21122001F0C9F9322002F054FA7F
:102AE0004FF4D051132001F0C1F90621292001F043
:102AF000BDF90D212B2001F0B9F9322002F044FA82
:102B00000021202001F0B2F90021212001F0AEF9CE
:102B1000322002F039FA0021302001F0A7F940F20A
:102B20000461312001F0A2F940F20531322001F0B8
:102B30009DF90021352001F099F940F60941362030
:102B400001F094F94FF40171372001F08FF940F250
:102B50000131382001F08AF93946392001F086F92F
:102B600000213C2001F082F940F60A213D2001F0CD
:102B70007DF9322002F008FA0021502001F076F9A8
:102B8000EF21512001F072F90021522001F06EF97D
:102B90005146532001F06AF9594651E10021084697
:102BA00001F064F93146012001F060F94946022044
:102BB00001F05CF941F23001032001F057F90021E6
:102BC000042001F053F940F20221082001F04EF9EF
:102BD0000021092001F04AF900210A2001F046F9FC
:102BE00001210C2001F042F900210D2001F03EF9F5
:102BF00000210F2001F03AF9322002F0C5F940F22D
:102C00000111072001F032F9322002F0BDF94FF432
:102C10008651102001F02AF90721112001F026F930
:102C20005B465946122001F021F94FF43061132020
:102C300001F01CF90021292001F018F944F21001DB
:102C40002B2001F013F90021502001F00FF9EF21A2
:102C5000512001F00BF90021522001F007F95146F3
:102C6000532001F003F94FF41C51602001F0FEF8ED
:102C70000121612001F0FAF800216A2001F0F6F844
:102C80000021802001F0F2F80021812001F0EEF80F
:102C90000021822001F0EAF80021832001F0E6F80B
:102CA0000021842001F0E2F80021852001F0DEF807
:102CB0001021902001F0DAF80021922001F0D6F8DE
:102CC0000121932001F0D2F81946952001F0CEF8A9
:102CD0000021972001F0CAF80021982001F0C6F8E1
:102CE00040F27311072084E341F21401E72001F060
:102CF000BDF83146012001F0B9F84FF4007102200F
:102D000001F0B4F841F23801032001F0AFF840F2CD
:102D10000221082001F0AAF80021092001F0A6F8FC
:102D200000210A2001F0A2F800210C2001F09EF8F9
:102D300000210D2001F09AF800210F2001F096F8F3
:102D40000021102001F092F80721112001F08EF8E7
:102D50000021122001F08AF80021132001F086F8EA
:102D6000C82002F011F941F29061102001F07EF8C4
:102D700040F22721112001F079F8322002F004F905
:102D80000C21122001F072F8322002F0FDF84FF40D
:102D90000061132001F06AF81121292001F066F882
:102DA0000B212B2001F062F8322002F0EDF8002117
:102DB000202001F05BF853465146212001F056F8DF
:102DC0000021302001F052F84FF483742146312065
:102DD00001F04CF80021322001F048F84FF4017165
:102DE000352001F043F841F20A61362001F03EF847
:102DF0003946372001F03AF82146382001F036F8FC
:102E00003946392001F032F840F202413C2001F00D
:102E10002DF840F60F413D2001F028F80021502008
:102E200001F024F8EF21512001F020F80021522078
:102E300001F01CF81946532001F018F84FF41C510A
:102E4000602001F013F80121612001F00FF800214A
:102E50006A2001F00BF80021802001F007F8002122
:102E6000812001F003F80021822000F0FFFF002103
:102E7000832000F0FBFF0021842000F0F7FF0021F9
:102E8000852000F0F3FF1021902000F0EFFF4FF4B9
:102E9000C0619220FEE33146012000F0E7FF494681
:102EA000022000F0E3FF41F23001032000F0DEFFDA
:102EB0000021042000F0DAFF40F20721082000F092
:102EC000D5FF0021092000F0D1FF00210A2000F0E9
:102ED000CDFF00210C2000F0C9FF00210D2000F0E3
:102EE000C5FF00210F2000F0C1FF142002F04CF8B4
:102EF00041F2B061102000F0B9FF0121112000F073
:102F0000B5FF0121172000F0B1FF4FF49C71122092
:102F100000F0ACFF4FF40061132000F0A7FF09217F
:102F2000292000F0A3FF09212A2000F09FFF0021A3
:102F3000A42000F09BFF0021502000F097FFEF211C
:102F4000512000F093FF0021522000F08FFF5146E6
:102F5000532000F08BFF4FF41C51602000F086FFDF
:102F60000121612000F082FF00216A2000F07EFF35
:102F70000021802000F07AFF0021812000F076FF00
:102F80000021822000F072FF0021832000F06EFFFC
:102F90000021842000F06AFF0021852000F066FFF8
:102FA0001321902000F062FF0021922000F05EFFCC
:102FB0000321932000F05AFF5946952000F056FF58
:102FC00040F27311072000F051FF322010E1002180
:102FD000072000F04BFF322001F0D6FF4FF48E7136
:102FE000122000F043FF0121A42000F03FFF0F2139
:102FF000082000F03BFF08210A2000F037FF0821DD
:103000000D2000F033FF3946302000F02FFF07215C
:10301000312000E06EE300F029FF40F2036132202E
:1030200000F024FF4C464946332000F01FFF40F2D9
:103030000221342000F01AFF0221352000F016FF93
:1030400041F60F71362000F011FF3946372000F0AD
:103050000DFF0021382000F009FF0021392000F089
:1030600005FF39463A2000F001FF00213B2000F027
:10307000FDFE07213C2000F0F9FE00213D2000F07C
:10308000F5FE322001F080FF0121072000F0EEFE66
:103090000121172000F0EAFE322001F075FF4FF405
:1030A000BD51102000F0E2FE40F21721112000F087
:1030B000DDFE4FF48F71122000F0D8FE4FF47061E6
:1030C000132000F0D3FE00212A2000F0CFFE0A21B9
:1030D000292000F0CBFE4FF49F71122000F0C6FEB5
:1030E0000021502000F0C2FEEF21512000F0BEFE72
:1030F0000021522000F0BAFE5146532000F0B6FEE7
:103100004FF41C51602000F0B1FE0121612000F05D
:10311000ADFE00216A2000F0A9FE0021802000F011
:10312000A5FE0021812000F0A1FE0021822000F0F8
:103130009DFE0021832004E05DE05BE123E2DAE212
:1031400081E300F093FE0021842000F08FFE002137
:10315000852000F08BFE1321902000F087FE594659
:10316000922000F083FE0521932000F07FFE0021D5
:10317000952000F07BFE0021972000F077FE0021D3
:10318000982000F073FE3146012000F06FFE2146CA
:10319000022000F06BFE41F23801032000F066FED1
:1031A0000021042000F062FE00210C2000F05EFEF1
:1031B00000210F2000F05AFE0021202000F056FED2
:1031C0000021212000F052FE2121072000F04EFEB8
:1031D000142001F0D9FE6121072000F047FE1420E1
:1031E00001F0D2FE40F27311072000F03FFE1420E0
:1031F00001F0CAFEA1E30021084600F037FE0021DD
:10320000084600F033FE0021084600F02FFE0021A2
:10321000084600F02BFE0121A42000F027FE00E06C
:10322000E3E0142001F0B0FE4FF41C54214660206E
:1032300000F01CFE40F202252946082000F016FE90
:103240004FF40571302000F011FE43F2157131206A
:1032500000F00CFE40F20461322000F007FE40F660
:103260001661332000F002FE42F21121342000F0FA
:10327000FDFD4FF4A851352000F0F8FD48F207514C
:10328000362000F0F3FD41F20741372000F0EEFD5B
:1032900041F20341382000F0E9FD2021392000F0FF
:1032A000E5FD1A21902000F0E1FD0021102000F042
:1032B000DDFD0721112000F0D9FD0021122000F0D2
:1032C000D5FD0021132000F0D1FD142001F05CFE9B
:1032D0004FF4E661102000F0C9FD40F237111120D3
:1032E00000F0C4FD142001F04FFE4FF4DC711220F9
:1032F00000F0BCFD142001F047FE4FF47061132074
:1033000000F0B4FD80212A2000F0B0FD48212920E2
:1033100000F0ACFD142001F037FE3146012000F032
:10332000A5FD4946022000F0A1FD41F2380103202D
:1033300000F09CFD2946082000F098FD00210A209D
:1033400000F094FD00210C2000F090FD00210D20E4
:1033500000F08CFD30210E2000F088FD002150206F
:1033600000F084FDEF21512000F080FD002152206B
:1033700000F07CFD5146532000F078FD214660208E
:1033800000F074FD0121612000F070FD00216A2031
:1033900000F06CFD1121902000F068FD4FF4C06139
:1033A000922000F063FD40F20241932000F05EFDA8
:1033B0000221942000F05AFD142001F0E5FD0121C6
:1033C000072000F053FD142001F0DEFD61210720ED
:1033D00000F04CFD40F27311072000F047FD002182
:1033E000202000F043FD0021212000F03FFD22219C
:1033F00000207DE10021084600F038FD002108464C
:1034000000F034FD142001F0BFFD0021084600F05B
:103410002DFD0021084600F029FD0021084600F09E
:1034200025FD0021084600F021FD0121A42000F027
:103430001DFD142001F0A8FD4FF41C51602000F088
:1034400015FD40F60601082000F010FD40F2037360
:103450001946302000F00AFD0121312000F006FD60
:103460000421322000F002FD4FF48171332000F07E
:10347000FDFC5C465946342000F0F8FC40F2031194
:10348000352000F0F3FC1F21362000F0EFFC194638
:10349000372000F0EBFC0121382000F0E7FC04218C
:1034A000392000F0E3FC1521902000F0DFFC4FF400
:1034B0008261102000F0DAFC40F24721112000F078
:1034C000D5FC4FF4DE71122000F0D0FC4FF46061A7
:1034D000132000F0CBFC782001F056FD314601208E
:1034E00000F0C4FC4FF40071022000F0BFFC41F278
:1034F0003001032000F0BAFC08210A2000F0B6FCDD
:1035000000210C2000F0B2FC20210E2000F0AEFCC7
:1035100000210F2000F0AAFC0021202000F0A6FCD2
:103520000021212000F0A2FC3D212A2000F09EFC79
:10353000142001F029FD2D21292000F097FC002105
:10354000502000F093FC4DF2EF01512000F08EFC72
:103550000021522000F08AFC5146532000F086FCE6
:103560000021612000F082FC00216A2000F07EFC36
:103570002146922000F07AFC0521932000F076FC91
:103580003146FFF7AFBB0121002000F06FFC0A209D
:1035900001F0FAFC41F22861102000F067FC0E21D6
:1035A000122000F063FC40F63921132000F05EFC8D
:1035B0000A2001F0E9FC4021112000F057FC5021C5
:1035C000152000F053FC0A2001F0DEFC1E21122021
:1035D00000F04CFC0A2001F0D7FC4FF4B151102050
:1035E00000F044FC42F63921132000F03FFC0A2091
:1035F00001F0CAFC3146012000F038FC5946022097
:1036000000F034FC41F23801032000F02FFC40F2BE
:103610000221082000F02AFC08210A2000F026FCE4
:103620000021302000F022FC40F20241312000F065
:103630001DFC4FF48371322000F018FC40F203515E
:10364000332000F013FC4FF48271342000F00EFCA4
:1036500040F20131352000F009FC3946362000F0F7
:1036600005FC40F20531372000F000FC4FF40271F8
:10367000382000F0FBFB40F60B71392000F0F6FB20
:103680000221412000F0F2FB4FF41C51602000F0B9
:10369000EDFB00E0D2E00121612000F0E7FB4FF4F8
:1036A0000471902000F0E2FB4FF48571922000F04D
:1036B000DDFB0421932000F0D9FB3146A02000F06F
:1036C000D5FB0121072000F0D1FB2121072000F0CC
:1036D000CDFB2321072000F0C9FB3321072000F098
:1036E000C5FB40F23311072000F0C0FB0021A020F1
:1036F00000F0BCFB21E13021152000F0B7FB1021C8
:103700009A2000F0B3FB2021112000F0AFFB43F220
:103710002841102000F0AAFB0221122000F0A6FB95
:1037200041F23801132000F0A1FB282001F02CFC0D
:103730001221084600F09AFB282001F025FC43F2F4
:103740002041102000F092FB43F23801132000F0DA
:103750008DFB462001F018FC0021302000F086FB94
:1037600040F20241312000F081FB40F2073132206B
:1037700000F07CFB4FF44171332000F077FB042113
:10378000342000F073FB40F20141352000F06EFB65
:103790003946362000F06AFB40F20531372000F050
:1037A00065FB4FF4C2631946382000F05FFB1946F1
:1037B000392000F05BFB3146012000F057FB5946F1
:1037C000022000F053FB41F23001032000F04EFBD9
:1037D00040F60801082000F049FB08210A2000F00B
:1037E00045FB4FF41C51602000F040FB012161209B
:1037F00000F03CFB4FF49F71902000F037FB314606
:10380000922000F033FB3146932000F02FFB4FF461
:103810004051A02000F02AFB1021A32000F026FB3D
:103820000121072000F022FB2121072000F01EFBD0
:103830002321072000F01AFB3321072000F016FB9C
:1038400040F233119DE6E2202080232028800220D0
:10385000288004202880642001F0B0FBE020208034
:10386000012028800A2001F08FFBE0202080032027
:1038700028800C2001F088FB012020800A2001F024
:1038800083FBE620208003202880FF2028802880DA
:10389000B02020802020288000202880032028803D
:1038A00040F21F3028800120288040F2DF1028805D
:1038B00000202880B42020800420288040F21F406F
:1038C000288000202880D22028800020288028807E
:1038D00028802880B6202080022028804FF40370A2
:1038E000288000202880222028800920288000208D
:1038F00028802880F0202080032028802920208014
:10390000D020208000202880BE2020800520288014
:10391000FE20288001202880FF2028800020288089
:10392000B82020800F20288001202880BA20208005
:1039300001202880642000F02DF80020FCF7DAFF39
:1039400004490120C1F880014046FCF79DFF1FB0EB
:10395000BDE8F08F008021420346012000E058437B
:10396000491EC9B2FBD27047034808B50088ADF8BC
:103970000000BDF8000008BD0008006C044910B547
:103980000880052001F01AFBBDE81040FFF7ECBFEE
:10399000FE07006C0C4A10B5BE211180941C052155
:1039A000218002F040FA4FF06632084B02F04EFAE6
:1039B00002F00CFA208001202080FF2020800020CF
:1039C0002080208010BD0000FE07006C6666044069
:1039D000F0B5674E00233146B279898846F6040770
:1039E00041F66314012A01D02AB11DE0B9421BD06F
:1039F000A14202D118E0A14216D1082814D2DFE872
:103A000000F00406080A0C0E101206200CE0072035
:103A10000AE0042008E0052006E0012004E0002080
:103A200002E0032000E00220A1F5134C45F2103221
:103A300045F21055BCF1410C07D0B94205D0914276
:103A400003D0A94201D0A14275D1082812D2DFE8E3
:103A500000F0110406080A0C0E1080230AE040232F
:103A600008E0C02306E0202304E0602302E0A02356
:103A700000E0E023A94202D14FF4585000E0362084
:103A8000914205D0A94203D0A14201D043F00803DE
:103A9000B94201D143F00203194600F0E7F9B288B8
:103AA000A2420AD098063088718802D5884202D393
:103AB00003E0884201D9318070802E48811CAA42DF
:103AC0007289028021D100230B80531C03800023C4
:103AD0000B80931C038033885B1E1C0A0C80D21C55
:103AE0000280DAB20A80B289028000230B80531C64
:103AF000038000230B80931C038073885B1E1C0AC9
:103B00000C80D21C0280D8B212E000220A800A8007
:103B10003288521E130A0B80D2B20A80B289028008
:103B20000020088008807088401E020A0A80C0B207
:103B30000880F0BDFFE7082812D2DFE800F0040695
:103B400008110A0C0E1030230AE0102308E020238D
:103B500006E0382304E0282302E0182300E00823CD
:103B6000BDE8F040032043F4805100F07FB900002D
:103B7000C0000020FE07006C2DE9F04F4E4F0B46B1
:103B80003A46BD880C0ADFF834B191895289A5F50F
:103B900013464FEA102C0BF1020A413E1DD0A5F549
:103BA000A646103E19D03E46BE4696F80690368888
:103BB000A5F5D047A6EB0008A8F10108043F17D0EF
:103BC000A5F5C857633F28D0A5F5AA477646103F0C
:103BD00051D0B9F1010F63D064E0ABF80020524638
:103BE000AAF800C0C0B2AAF80000ABF800100FE0BD
:103BF000B9F1010F01D11FFA88F0ABF80020050AD6
:103C00005246AAF80050C0B2AAF80000ABF8001063
:103C10001480D8B21080BDE8F08FB9F1000F1BD02E
:103C2000ABF800205246AAF800C0C0B2AAF80000C3
:103C3000761E300AAAF80000F0B21080ABF800102F
:103C400011461480D8B21080BEF80200401E020A4D
:103C50000A80C0B20880DEE71FFA88F0ABF80020C7
:103C600000265246AAF80060AAF80060060AAAF8E0
:103C70000060C0B2E1E7ABF80020AAF800C0521C17
:103C8000ABF80020C0B2AAF80000ABF80010AAF808
:103C90000040491CABF80010D8B2AAF80000BAE7FF
:103CA0001FFA88F00146104600F0E0F8B089BDE840
:103CB000F04F194600F0DAB8C0000020FE07006C93
:103CC0002DE9F84F82461F460C468B46580700D018
:103CD000012000EBD70079084843203AC0B202F037
:103CE000FF090026009041E00C2F10D0102F12D0B9
:103CF000182F3ED1204909EBC90001EB80004FF09D
:103D00000008855D28060AD51C4802880BE009EBEF
:103D100049001B49F1E71B4901EB0910EFE70A983D
:103D200028B91648428821465046FCF77DFE6806B1
:103D3000050E1548641CA4B24088A04219D9A4EB12
:103D40000B00B84209D10AF101001FFA80FA0E48AF
:103D50005C46018851450CD906E008F1010000F0ED
:103D6000FF08B8F1080FCDD3761CF6B20098864252
:103D7000BAD3BDE8F88F0000826E0008140000205E
:103D80001E64000892680008C00000202DE9FF4F63
:103D900081B00027DDF838B01D46924680463C468B
:103DA000B9464FEA5B0627E0281B401EC1B20A2035
:103DB000FFF7D2FDBAFBF0F00A21B0FBF1F201FBF4
:103DC000120027B9691E8C4201DA48B10127303050
:103DD000C2B206FB048080B25B46CDF8009006E0DC
:103DE00006FB048080B25B462022CDF80090029949
:103DF000FFF766FF641CE4B2AC42D5D305B0BDE862
:103E0000F08F2DE9F84F044600F0FF0810190D4619
:103E1000DDE90A761FFA80FA58191FFA80F94FF087
:103E2000000B11E0544502D3E819444685B24D45D4
:103E30000FD23B4629462046CDF800B0FFF740FFA1
:103E400004EB570084B2761C3278A2F120005E2881
:103E5000E8D9BDE8F88F00000248034900890880CE
:103E600070470000C0000020FE07006C024A10806E
:103E7000901C018070470000FE07006C38B50121DE
:103E8000482000F08FFA2024ADF8004010208DF873
:103E9000030003200B4D8DF8020069462846FCF70D
:103EA000FDFB20212846FCF77AFCADF80040064CCB
:103EB00069462046FCF7F2FB20212046FCF76FFC08
:103EC00038BD0000000C014000180140FEE77047BB
:103ED00030B50F23C27801780125F2B1144A126877
:103EE00001F1E02102F4E062C2F5E062120AC2F1DF
:103EF0000404D3404278A24084781C401443220139
:103F000081F80024007800F01F018D4040098000F6
:103F100000F1E020C0F8005130BD01F01F008540E5
:103F20004809800000F1E020C0F8805130BD000059
:103F30000CED00E0024908430249086070470000A8
:103F40000000FA050CED00E070B5802622255E2405
:103F500030B1012808D003280AD004280FD10BE083
:103F6000402611252F240AE066261B254B2406E057
:103F700099262825712402E0C02633258D24314658
:103F80004F2000F09BFB3146502000F097FB0021B2
:103F9000512000F093FB2946522000F08FFB214670
:103FA000532000F08BFB3146542000F087FBBDE826
:103FB00070409E21582000F081BB402130B1012883
:103FC00006D0032806D0042807D105E0302104E0FC
:103FD000382102E0502100E06021562000F06EBB45
:103FE000F8B50024012140F23D1000F0DBF94FF458
:103FF0008075ADF8005048268DF803600320354FDA
:104000008DF8020069463846FCF748FB29463846D9
:10401000FCF7C5FB1820ADF800002F4F10258DF8D8
:10402000035069463846FCF739FB18213846FCF73F
:10403000B6FBFF20ADF800008DF803606946274805
:10404000FCF72CFB4020ADF80000254E8DF8035006
:1040500069463046FCF722FB40213046FCF79FFBC7
:104060004FF44046ADF800608DF803501D4D694691
:104070002846FCF713FB31462846FCF790FB01214C
:104080001948FCF759FB00F0E3F98021122000F0F9
:1040900015FB08B10120F8BD322000F075FF0B20A0
:1040A00000F068FA732804D10A2000F063FA762839
:1040B00001D00220F8BD0D4D05EB4400417815F804
:1040C000140000F0FBFA641CA4B2A82CF4D3002066
:1040D000F8BD000000080140000C01400010014044
:1040E000001401400020014000023000DE7B000887
:1040F00070B50025E7212C46012806D0022808D0FB
:1041000003280AD004280FD10BE0E5215A255C24AE
:104110000AE0E5215825602406E0E52184254C24A9
:1041200002E0E52196254024132000F0C7FA294635
:10413000012000F0C3FA2146BDE87040022000F0E3
:10414000BDBA70B50421C0248025072816D2DFE847
:1041500000F0150406090B0E1200242100E01421C2
:1041600080240BE0142109E01421402405E01421EF
:104170008024C02502E01421A02440253A2000F02C
:104180009DFA2146682000F099FA2946BDE8704062
:10419000672000F093BA2DE9F041054600EB42009C
:1041A00086B201EB430084B20F46B4F5447F02D9D6
:1041B000A4F54474A4B2032000F0DCF906F0030275
:1041C000294600F0F00062F39F010143032000F054
:1041D00075FAC5F38701192000F070FAC6F387015C
:1041E0001A2000F06BFA322000F0C4F9C7F3C701BF
:1041F000172000F063FAC4F3C701BDE8F0411820AE
:1042000000F05CBA2DE9F05F514E4FF00009F088E4
:10421000B0F5A07F02D8B589F02D06D94D49A1F897
:104220000290A1F80090BDE8F09F4B4FB7F9001045
:10423000081A01F087FF49490446C860B7F902002F
:10424000401B01F07FFF454D454918350746E860A2
:10425000884202DA4348874203D386F800906869AF
:1042600006E0012030703946686901F0EDFE6861B2
:10427000DFF8F480404502DDC5F8148003E03B49D7
:10428000884200D96961354D38461835296902F0F0
:1042900051F8A96801F082FF8346307801F06AFF87
:1042A000696801F07BFF696901F078FF8246394651
:1042B000286801F073FF514601F0C6FE594601F02F
:1042C000C3FE01F023FFDFF88CA0AAF80200244807
:1042D000183D844202DA2348844203D386F80190D1
:1042E000686906E0012070702146686901F0ACFE43
:1042F0006861404502DDC5F8148003E01B4988422F
:1043000000D969612046296902F014F8A96801F012
:1043100045FF8046707801F02DFF696801F03EFF8F
:10432000696901F03BFF06462146286801F036FF27
:10433000314601F089FE414601F086FE01F0E6FEBD
:10434000AAF800000548183007612C616BE70000EF
:1043500024000020460000203E000020D000002065
:1043600000004842000048C200001644000016C485
:1043700070470000044A0029516901D0014300E060
:10438000814351617047000000100240044A002937
:10439000D16901D0014300E08143D1617047000041
:1043A00000100240044A0029916901D0014300E055
:1043B00081439161704700000010024030B5204AEF
:1043C0005168204B11F00C0103D0042901D00829B9
:1043D00001D0036012E05168536801F470114FF08E
:1043E000020413F4803F04EB914102D053689B0315
:1043F00001D5154B00E0134B5943016051680F2361
:1044000003EA1111114B5C5C0168E14041605468A2
:10441000072505EA14241C5D21FA04F4846054681D
:1044200005EAD4241B5DD940C1605268032303EA26
:104430009232064B1B1F9A5CB1FBF2F1016130BD59
:104440000010024000127A0000093D005C000020CC
:1044500038B501214FF49070FFF7A4FF4FF40055D9
:10446000ADF8005048208DF803000320114C8DF862
:10447000020069462046FCF711F929462046FCF760
:104480008EF90820ADF8000010200B4D8DF80300C8
:1044900069462846FCF702F908212846FCF77FF90F
:1044A000606820F470006060606840F440106060F4
:1044B00038BD0000002001400014014070B53220DA
:1044C00000F07CFD0C4D0120C5F8B4010B4EC6F880
:1044D0008C01322005F5DA7506F5C67600F06EFD22
:1044E00000243460322000F069FD2C60BDE870408B
:1044F000322000F063BD0000000024420080224210
:104500002DE9F047184F0024786820F47000786097
:10451000786840F400007860DFF85090144E082569
:104520004FF00108A246322000F048FDC6F88C8109
:104530006006040ED9F8340108B1641CE4B23220DC
:1045400000F03CFDC6F88CA16D1E15F0FF05EAD108
:10455000786820F470007860786840F440107860E3
:104560002046BDE8F0870000002001400000244202
:104570000080224210B5044600F022F8422000F0EC
:1045800055F8642000F01AFD204600F04FF8642032
:1045900000F014FD00F02EF8642000F00FFD00F094
:1045A0000FF8432000F042F8642000F007FDFFF709
:1045B000A7FF0446FFF782FF00F01CF8204610BD5D
:1045C00070B50A4E0120C6F8B401094DC5F88C013A
:1045D000322005F5C67506F5DA7600F0EFFC00240A
:1045E0003460322000F0EAFC2C6070BD00002442F0
:1045F0000080224270B50B4C0020C4F8B401322078
:1046000004F5DA7400F0DAFC07480125C0F88C5193
:10461000322000F0D3FC2560BDE87040322000F06D
:10462000CDBC000000002442008022422DE9F0476A
:1046300000241F4E1F4F0546A0464FF001092806D3
:1046400001D5484600E04046C6F8B4016806050EAC
:10465000322000F0B3FCC7F88C91322000F0AEFCA1
:10466000C7F88C81641CE4B2082CE8D3124C606853
:1046700020F470006060606840F4000060603220E8
:1046800000F09CFCC7F88C91322000F097FCD6F823
:10469000340100B10120C7F88C81616821F47001F8
:1046A0006160616841F440116160BDE8F08700001D
:1046B00000002442008022420020014070B50D46D7
:1046C00006460024FFF77CFF4220FFF7AFFF00B152
:1046D0000124642000F072FC3046FFF7A7FF00B110
:1046E0000124642000F06AFC2846FFF79FFF00B118
:1046F0000124FFF77FFF204670BD70470CB50022F4
:10470000264800920192016841F4803101604FF423
:10471000A063016801F4003101910099491C0091E6
:10472000019911B900999942F3D10168890333D5F0
:10473000012101911A490A6842F010020A600A68D0
:1047400022F003020A600A6842F002020A6041682D
:10475000416041684160416841F480614160416865
:1047600021F47C114160416841F4E8114160016825
:1047700041F08071016001688901FCD5416821F038
:1047800003014160416841F0020141604168C1F3A9
:1047900081010229FAD10CBD01920CBD001002402A
:1047A00000200240134910B58888134A1388134C1F
:1047B000184480B2E082C9885288114489B22183AA
:1047C000B4F90E20904203DCB4F91020904200DAD4
:1047D000E282B4F91200814203DCB4F91400814290
:1047E00000DA2083E08A00F00BF8208BBDE810404F
:1047F00000F00CB83E0000204600002024000020FD
:104800000146014800F0E0B90004004001460148BB
:1048100000F0D8B9000400404FF0E02104280869F6
:1048200003D020F004000861704740F00400FAE76C
:10483000704700000F4810B5016841F001010160A8
:1048400041680D4A1140416001680C4A1140016005
:10485000016821F480210160416821F4FE0141607A
:104860004FF41F018160FFF749FF05494FF00060D9
:10487000086010BD001002400000FFF8FFFFF6FEC8
:1048800008ED00E030B50D46044689B00121022054
:10489000FFF77CFD01210420FFF784FDC022ADF865
:1048A0001C2018228DF81F2003208DF81E0007A958
:1048B0001D48FBF7F3FEADF81440ADF8105000248E
:1048C0001A4DADF81640ADF8124004A9284600F084
:1048D0007DF97021ADF800100120ADF802004FF411
:1048E000BE60ADF80600ADF808406946284600F005
:1048F000D9F86946284600F01BF90121284600F046
:10490000B2F80821284600F00DF90821284600F0E9
:104910004FF90121284600F08FF80121284600F0C8
:1049200098F809B030BD00000008014000040040C4
:10493000F8B5254D0121284600F0A0F8E0B3234E3C
:10494000234C3078012804D100F0F4FD6068401C4D
:104950006060317802290AD003290BD004290CD0D9
:1049600005290DD006290ED007290FD013E000F03D
:1049700033FE0DE000F06AFE0AE000F0F5FE07E00D
:1049800000F080FF04E001F053F801E001F03EF98F
:104990006068401C60601820009002230F223C21B8
:1049A0006620FFF7F3F90B4900202070D1F894013D
:1049B00040B10020C1F894012846BDE8F84001212B
:1049C00000F044B80120F5E7001000404A00002044
:1049D0001C000020008021427FB50D4604460121C5
:1049E0001020FFF7D3FCADF804400020ADF80050D4
:1049F000104CADF80600ADF802006946204600F004
:104A0000E5F801224121204600F044F8012120462A
:104A100000F01FF836208DF80C0001208DF80D00F5
:104A200003218DF80E108DF80F0003A8FFF750FA40
:104A30007FBD0000001000400029018802D041F035
:104A4000800101E021F0800101807047C9430182AB
:104A500070470029018802D041F0010101E021F0F6
:104A6000010101807047002930F8441F02D041F451
:104A7000004101E0C1F30E010180704702460020B1
:104A8000138A92890B4202EA010202D0002A00D066
:104A900001207047002A828901D00A4300E08A433E
:104AA0008281704730B5028C22F001020284028CB0
:104AB0008388048B22F0020224F073050C882C43B7
:104AC0000D8915434A882A43114DA8420BD0114D38
:104AD000A84208D0104DA84205D0104DA84202D0DF
:104AE0000F4DA8420DD122F008054A8923F44073E6
:104AF0002A4322F004058A882A438D891D43CB89E5
:104B00002B4383800483C9888186028430BD0000E2
:104B1000002C0140003401400040014000440140AD
:104B200000480140028B22F008020A4302837047CA
:104B300070B5028C22F010020284028C8388048BF0
:104B40000D8824F4E6464FF6FF7404EA0525354344
:104B50000E8922F0200204EA061616434A8804EA67
:104B600002123243104EB04202D0104EB04215D164
:104B700022F080064A8923F4406304EA0212324399
:104B800022F040068A8804EA021232438E8904EA3F
:104B900086061E43CB8904EA83033343838005835F
:104BA000C9880187028470BD002C01400034014097
:104BB000028B4FF6FF7322F4006203EA01211143D6
:104BC00001837047818670470187704730B502883E
:104BD0001B4C1C4DA0420DD0A8420BD0B0F1804F11
:104BE00008D0194B984205D0184B984202D0184B68
:104BF000984203D122F070034A881A43154B984219
:104C000006D0154B984203D022F44073CA881A4349
:104C100002808A8882850A880285A0420AD0A8423A
:104C200008D00E4A904205D00D4A904202D00D4A5B
:104C3000904201D1097A01860121818230BD0000B4
:104C4000002C0140003401400004004000080040F6
:104C5000000C0040001000400014004000400140E3
:104C6000004401400048014070B5154C40F2255108
:104C7000204600F035F800280ED0204600F0BEF89F
:104C8000104AC1B21088030406D444044FF0000354
:104C900006D50A2901D0138070BD40F400400DE014
:104CA0000D2909D0C0F30D04074D401C80B22955D1
:104CB0001080C728EFD870BD40F48040108070BDD0
:104CC0000038014052000020240100200029818981
:104CD00002D041F4005101E021F40051818170477C
:104CE00070B501F01F0501260024C1F3421306FA36
:104CF00005F2012B0FD0022B0FD0838A4FEA11212E
:104D00000088134206FA01F600EA060001D000B15D
:104D10000124204670BD8389F0E7038AEEE710B5D1
:104D2000C1F3421301F01F040121A140012B07D060
:104D3000022B07D01430002A026805D00A4304E091
:104D40000C30F8E71030F6E78A43026010BD00002F
:104D500030B50446008A85B00D464CF6FF71084018
:104D6000E98801432182A0894EF6F3110840A98801
:104D70002A8911436A8902431143A181A08A4FF60F
:104D8000FF410840A9890143A1826846FFF716FB4D
:104D90001948844201D1039800E00298A1890904CE
:104DA00000EBC00101EB0010296801D5490000E0CB
:104DB0008900B0FBF1F06422B0FBF2F109010B09AC
:104DC0006FF018056B4300EB8300A3891D044FF0BF
:104DD000320306D503EBC000B0FBF2F000F0070091
:104DE00005E003EB0010B0FBF2F000F00F00084309
:104DF000208105B030BD0000003801408088C0F33C
:104E000008007047FEE770472DE9F04F48480078EA
:104E1000002876D047480021C0F8B811464C10222F
:104E20002260251F2A6022600121C0F8B8112A6083
:104E3000DFF80891DFF808A1DFF808E100214FF65C
:104E4000FF764FF4A07B00202260D9F808302A605A
:104E5000DBB206EA03232260D9F808702A60FFB2A9
:104E60001F43FB0A44F68B4C03FB0CF3C7F3451CB2
:104E700049F245680CFB083307F01F0740F2D31CCA
:104E800007FB0CF703EB07131B0C172B1CD38B1F13
:104E9000E52B17D2B0F59D7F14D8052812D9BEF89E
:104EA00002307746984200D97880BB88984200D279
:104EB000B8803B89994200D939817B89994201D2D6
:104EC000AEF80A10334600E00023AAF80030401C78
:104ED00080B25845B8D3491C89B2F029B3D3BEF883
:104EE0000200744670B1A18859450BD022894AB19D
:104EF0006389F02B06D008444008E080D0184008B1
:104F000004E012E04FF4A170E080F220A0810020C4
:104F10006080A4F804B02081F021AEF80A100449A2
:104F2000087009490878401C0870BDE8F08F00003F
:104F30001800002000002442140C01400010014021
:104F40000008006C240000201C00002010B56FF049
:104F50000400FFF761FC094809490068B0FBF1F063
:104F60000849C0B200EB40020870C2EBC0104FF617
:104F7000FF7202EAC000488010BD0000000000205F
:104F800000127A004E0000200B49498848434FF038
:104F9000E021486100238B61086940F0010008614D
:104FA0000869C20701D0C003FAD5086920F00100E2
:104FB00008618B61704700004E0000200B490978A2
:104FC00048434FF0E021486100238B61086940F0BD
:104FD000010008610869C20701D0C003FAD5086959
:104FE00020F0010008618B61704700004E00002036
:104FF00004490A885206FCD5024AC1B2121D11802A
:1050000070470000003801401CB54FF0000802272F
:1050100045464446FFF79AFFFEF730FFFBF7C2FB19
:105020004FF4A060FEF786FF4FF4E13000F07EFE03
:10503000FBF788FD472140F6BA30FFF723FC41F625
:105040001F4140F2F310FFF7C7FCFBF70DFA0020F9
:10505000FBF71AFCFEA01826CDE900601023C82239
:1050600096211E20FEF7CDFEFBA0CDE900601023A7
:10507000C822B4211E20FEF7C4FEFEF7B1FF0028AF
:10508000FBD140F2DC50FFF77FFF4046FFF730F8DE
:105090003846FEF759FF2846FEF78FFF2046FFF7F8
:1050A00050F84FF4A073F022B0210C20FFF773F8F2
:1050B000EB480025C0F8BC5101231A465A2166204E
:1050C0000096FEF763FEE74C0120024620700323A2
:1050D0009621C8200096FEF759FEE34E4FF49660E5
:1050E000B0804FF4AF60F080DFF880B3DFF88083EA
:1050F000DFF88093DFF880A30020FBF771FB074601
:10510000012808D0022F58D0032F77D0012F05D0C7
:10511000022F55D075E02078012803D0207804288C
:105120006BD06EE0D54AC8F80020C9F800204FF0D7
:105130007A52C8F80420D24AC9F804A0C8F8082056
:10514000C9F80820C8F81450B420C9F814503080A9
:1051500078207080CB480560022077E0012000E0D5
:105160000020C1F89401C84800780128C4D1C74F75
:1051700010213846FBF70CFB0028F9D010213846E7
:10518000FBF706FB0028B7D110213846FBF700FBE0
:105190000028F9D0BE4F0121BE48FBF7F9FA0028DC
:1051A00075D0B948BC4942780A7045700121B948A8
:1051B000FBF7EEFA0128F9D0D1E02078022803D0DD
:1051C000207805287FD01CE0B44AC8F80020C9F830
:1051D0000020C8F804A0B24AC9F804A0C8F8082002
:1051E000C9F80820C8F81450BD20C9F81450308000
:1051F00024207080032029E000E049E02078032883
:105200002BD00121A348FBF7C3FAB842ABD12078D9
:105210000628A8D1A34AC8F80020C9F800204FF0FA
:105220007A52C8F80420964AC9F804A0C8F80820A1
:105230009D4AC9F80820C8F81450B420C9F8145081
:105240003080782070808F48056007202070DBF860
:1052500094015946002883D180E7944AC8F8002079
:10526000C9F80020C8F804A08D4AC9F804A0C8F8FD
:105270000820C9F80820C8F81450B420C9F8145000
:105280003080782070807F4805600420DEE723E0CE
:10529000864AC8F80020C9F80020C8F804A0804A4F
:1052A000C9F804A0C8F80820C9F80820C8F81450A4
:1052B0005F20C9F8145030806F20708071480560FD
:1052C0000520C3E7FFE77048017800299ED10A2135
:1052D0002170012101704AE708216C48FBF758FA58
:1052E00078B908216948FBF753FA0028F9D06648D5
:1052F0004178491C4170D7F8940198B10020C7F853
:105300009401D7F8940178B10020C7F894014FF4C4
:10531000FA70FFF739FED7F8940138B10020C7F8CA
:10532000940138E70120EAE70120EEE70120F6E7E3
:10533000564F08213846FBF72BFA80B9082138462A
:10534000FBF726FA0028F9D04F484178491C4170F4
:105350004F49D1F89401A8B10020C1F894014D4FF4
:1053600001213846FBF714FA0028E1D046484A49A3
:1053700042784A70457001213846FBF709FA012846
:10538000F9D018E00120E8E7404F08213846FBF744
:10539000FFF980B908213846FBF7FAF90028F9D05F
:1053A00039484178491C41703949D1F89401A8B174
:1053B0000020C1F89401374F01213846FBF7E8F986
:1053C0000028E1D03048344942788A704570012184
:1053D0003846FBF7DDF90128F9D018E00120E8E7AD
:1053E0002A4F08213846FBF7D3F980B908213846FF
:1053F000FBF7CEF90028F9D023484178491C4170C9
:105400002349D1F8940108B30020C1F89401012187
:105410002048FBF7BDF90028E2D01B4A1E48234B69
:105420005178C1705570C8F80030C9F80030C8F81C
:1054300004A01B4BC9F804A0C8F80830C9F808300C
:10544000C8F81450FE20C9F8145031E03AE00000CA
:1054500020205820203A000020205920203A000027
:10546000000024424A0000203E000020008021422B
:10547000D0000020E80000207B14AE3D9A9939400E
:1054800000009041200000206C0000200018014026
:105490000000234200080140BC0000203333834059
:1054A0006666964100002040000020416666464046
:1054B0003080D920708004480560062020700220CA
:1054C000107019E60120A0E7200000201749184AB3
:1054D0000A2829D2DFE800F02805070B0F13171B55
:1054E0001F2308881DE00889108088891BE0088A2E
:1054F0001080888A17E0088B1080888B13E0088C56
:105500001080888C0FE0088D1080888D0BE0088E4D
:105510001080888E07E0088F1080888F03E031F8B4
:10552000400F108088885080704700007400002071
:105530003E00002010B5224822494FF08042026010
:105540000A604FF07A5242604A604FF081428260B6
:105550008A60002242611C4C60204A6120806D20DC
:105560006080FFF751FCFEF74DFEFFF71BF9B4F921
:10557000001016480839008881421FDAB4F900107B
:10558000083181421ADDB4F9021011480839008847
:10559000814213DAB4F90210083181420EDD0D495F
:1055A0004878401CC0B24870282807D1A088FFF76F
:1055B00027F9E088BDE81040FFF728B910BD0000CA
:1055C000D0000020E80000203E0000202A0000203B
:1055D000300000204A00002010B5FFF715FCFEF750
:1055E00011FEFFF7DFF8154CB4F900101448083924
:1055F0000088814221DAB4F90010083181421CDDB3
:10560000B4F902100F4808390088814215DAB4F95C
:1056100002100831814210DD0B494878401CC0B2AD
:105620004870282809D100200870A088FFF7E8F802
:10563000E088BDE81040FFF7E9B810BD3E0000204B
:105640002A000020300000204A0000202DE9F0410F
:105650003B4FDFF8F0803C4D3C4E3D4C386AE0B3A8
:1056600001286BD13C483D493A4A02600A603C4AF5
:1056700042604A603B4A82608A6000224261B420F4
:105680004A61208078206080FFF7BEFBFEF7BAFDFC
:10569000FFF788F8B4F900102888083981424DDAFC
:1056A000B4F900100831814248DDB4F902103088A5
:1056B0000839814242DAB4F90210083181423DDDF5
:1056C00098F80100401CC0B288F80100282835D1A4
:1056D000A088FFF795F8E08800E003E0BDE8F0411E
:1056E000FFF794B8FFF790FBFEF78CFDFFF75AF831
:1056F000B4F900102888143981421FDAB4F9001077
:10570000143181421ADDB4F9021030881439814213
:1057100014DAB4F90210143181420FDD98F8010057
:10572000401CC0B288F80100282807D1A088FFF7E4
:1057300067F8E088FFF76AF801203862BDE8F08179
:10574000000100204A0000202A0000203000002034
:105750003E00002000006040D0000020E800002053
:105760007B14AE3D666696412DE9F0413B4FDFF874
:10577000F0803C4D3C4E3D4CF868E0B301286BD1C5
:105780003C483D493A4A02600A603C4A42604A60ED
:105790003B4A82608A6000224261FF204A61208089
:1057A000DB206080FFF730FBFEF72CFDFEF7FAFFF1
:1057B000B4F9001028880A3981424DDAB4F9001092
:1057C0000A31814248DDB4F9021030880A39814239
:1057D00042DAB4F902100A3181423DDD98F8010045
:1057E000401CC0B288F80100282835D1A088FFF7F6
:1057F00007F8E08800E003E0BDE8F041FFF706B8F5
:10580000FFF702FBFEF7FEFCFEF7CCFFB4F9001039
:105810002888503981421FDAB4F900105031814292
:105820001ADDB4F9021030885039814214DAB4F923
:105830000210503181420FDD98F80100401CC0B2C7
:1058400088F80100282807D1A088FEF7D9FFE08852
:10585000FEF7DCFF0120F860BDE8F08100010020C8
:105860004A0000202A000020300000203E000020D6
:1058700000006040D0000020E80000207B14AE3D16
:10588000666696412DE9F047DFF87C815F4D604EFA
:10589000604F614CD8F81000F0B3C2460023DFF827
:1058A0007C815F495F4ADFF88091DFF880C1012881
:1058B0006CD0022868D1C1F80080C2F80080C1F81D
:1058C0000490C2F80490C1F808C0C2F808C04B6147
:1058D000FE2053612080D9206080FFF795FAFEF703
:1058E00091FCFEF75FFFB4F900103088083981425F
:1058F0004ADAB4F900100831814245DDB4F90210EA
:105900003888083981423FDAB4F9021008318142FF
:105910003ADD6878401C00E00BE0C0B268702828CF
:1059200032D1A088FEF76CFFE088BDE8F047FEF7B3
:105930006DBFFFF769FAFEF765FCFEF733FFB4F9B8
:10594000001030880A3981421EDAB4F900100A3199
:10595000814219DDB4F9021038880A39814213DA1C
:10596000B4F902100A3181420EDD6878401CC0B2E1
:105970006870282808D1A088FEF742FFE088FEF76B
:1059800045FF0121C8F81010BDE8F087C1F800807C
:10599000C2F80080C1F80490C2F80490C1F808C0B1
:1059A000C2F808C04B61AB2053612080CF206080DB
:1059B000FFF72AFAFEF726FCFEF7F4FEB4F9001012
:1059C000308814398142DFDAB4F900101431814291
:1059D000DADDB4F90210388814398142D4DAB4F926
:1059E000021014318142CFDD6878401CC0B268706B
:1059F0002828C9D1A088FEF703FFE088FEF706FF3C
:105A00000221CAF81010BFE7000100204A00002060
:105A10002A000020300000203E000020666646403C
:105A2000D0000020E80000207B14AE3D6666964161
:105A30002DE9F041DFF8AC816B4D6C4E6C4F6D4C35
:105A4000D8F8140090B301286BD002287ED0032828
:105A50007DD10420FFF73AFDFFF7D6F9FEF7D2FB20
:105A6000FEF7A0FEB4F900103088083981426EDAE2
:105A7000B4F900100831814269DDB4F902103888A8
:105A8000083981427EDAB4F902100831814279DDA9
:105A90006878401CC0B26870282873D1A088FEF7CF
:105AA000AFFEE088BDE8F041FEF7B0BE5348544970
:105AB000514A02600A60534A42604A60524A826018
:105AC0008A600022426101204A61FFF7FFFCFFF774
:105AD0009BF9FEF797FBFEF765FEB4F900103088DE
